{
  "_format": "hh-sol-artifact-1",
  "contractName": "CrowdFunding",
  "sourceName": "contracts/CrowdFunding.sol",
  "abi": [
    {
      "inputs": [
        {
          "internalType": "uint256",
          "name": "ID",
          "type": "uint256"
        },
        {
          "internalType": "uint256",
          "name": "useID",
          "type": "uint256"
        },
        {
          "internalType": "bool",
          "name": "agree",
          "type": "bool"
        }
      ],
      "name": "agreeUse",
      "outputs": [],
      "stateMutability": "nonpayable",
      "type": "function"
    },
    {
      "inputs": [
        {
          "internalType": "uint256",
          "name": "ID",
          "type": "uint256"
        },
        {
          "internalType": "uint256",
          "name": "useID",
          "type": "uint256"
        }
      ],
      "name": "checkUse",
      "outputs": [],
      "stateMutability": "nonpayable",
      "type": "function"
    },
    {
      "inputs": [
        {
          "internalType": "uint256",
          "name": "ID",
          "type": "uint256"
        }
      ],
      "name": "contribute",
      "outputs": [],
      "stateMutability": "payable",
      "type": "function"
    },
    {
      "inputs": [
        {
          "internalType": "uint256",
          "name": "",
          "type": "uint256"
        }
      ],
      "name": "fundings",
      "outputs": [
        {
          "internalType": "address payable",
          "name": "initiator",
          "type": "address"
        },
        {
          "internalType": "string",
          "name": "title",
          "type": "string"
        },
        {
          "internalType": "string",
          "name": "info",
          "type": "string"
        },
        {
          "internalType": "uint256",
          "name": "goal",
          "type": "uint256"
        },
        {
          "internalType": "uint256",
          "name": "endTime",
          "type": "uint256"
        },
        {
          "internalType": "bool",
          "name": "success",
          "type": "bool"
        },
        {
          "internalType": "uint256",
          "name": "amount",
          "type": "uint256"
        },
        {
          "internalType": "uint256",
          "name": "numFunders",
          "type": "uint256"
        },
        {
          "internalType": "uint256",
          "name": "numUses",
          "type": "uint256"
        }
      ],
      "stateMutability": "view",
      "type": "function"
    },
    {
      "inputs": [],
      "name": "getBalance",
      "outputs": [
        {
          "internalType": "uint256",
          "name": "",
          "type": "uint256"
        }
      ],
      "stateMutability": "view",
      "type": "function"
    },
    {
      "inputs": [
        {
          "internalType": "address",
          "name": "addr",
          "type": "address"
        },
        {
          "internalType": "uint256",
          "name": "ID",
          "type": "uint256"
        }
      ],
      "name": "getMyFundings",
      "outputs": [
        {
          "internalType": "uint256",
          "name": "",
          "type": "uint256"
        }
      ],
      "stateMutability": "view",
      "type": "function"
    },
    {
      "inputs": [
        {
          "internalType": "uint256",
          "name": "ID",
          "type": "uint256"
        },
        {
          "internalType": "uint256",
          "name": "useID",
          "type": "uint256"
        },
        {
          "internalType": "address",
          "name": "addr",
          "type": "address"
        }
      ],
      "name": "getUse",
      "outputs": [
        {
          "internalType": "string",
          "name": "",
          "type": "string"
        },
        {
          "internalType": "uint256",
          "name": "",
          "type": "uint256"
        },
        {
          "internalType": "uint256",
          "name": "",
          "type": "uint256"
        },
        {
          "internalType": "uint256",
          "name": "",
          "type": "uint256"
        },
        {
          "internalType": "bool",
          "name": "",
          "type": "bool"
        },
        {
          "internalType": "uint256",
          "name": "",
          "type": "uint256"
        }
      ],
      "stateMutability": "view",
      "type": "function"
    },
    {
      "inputs": [
        {
          "internalType": "uint256",
          "name": "ID",
          "type": "uint256"
        }
      ],
      "name": "getUseLength",
      "outputs": [
        {
          "internalType": "uint256",
          "name": "",
          "type": "uint256"
        }
      ],
      "stateMutability": "view",
      "type": "function"
    },
    {
      "inputs": [
        {
          "internalType": "address payable",
          "name": "initiator",
          "type": "address"
        },
        {
          "internalType": "string",
          "name": "title",
          "type": "string"
        },
        {
          "internalType": "string",
          "name": "info",
          "type": "string"
        },
        {
          "internalType": "uint256",
          "name": "goal",
          "type": "uint256"
        },
        {
          "internalType": "uint256",
          "name": "endTime",
          "type": "uint256"
        }
      ],
      "name": "newFunding",
      "outputs": [
        {
          "internalType": "uint256",
          "name": "",
          "type": "uint256"
        }
      ],
      "stateMutability": "nonpayable",
      "type": "function"
    },
    {
      "inputs": [
        {
          "internalType": "uint256",
          "name": "ID",
          "type": "uint256"
        },
        {
          "internalType": "uint256",
          "name": "goal",
          "type": "uint256"
        },
        {
          "internalType": "string",
          "name": "info",
          "type": "string"
        }
      ],
      "name": "newUse",
      "outputs": [],
      "stateMutability": "nonpayable",
      "type": "function"
    },
    {
      "inputs": [],
      "name": "numFundings",
      "outputs": [
        {
          "internalType": "uint256",
          "name": "",
          "type": "uint256"
        }
      ],
      "stateMutability": "view",
      "type": "function"
    },
    {
      "inputs": [
        {
          "internalType": "uint256",
          "name": "ID",
          "type": "uint256"
        }
      ],
      "name": "returnMoney",
      "outputs": [],
      "stateMutability": "nonpayable",
      "type": "function"
    }
  ],
  "bytecode": "0x608060405234801561001057600080fd5b50612310806100206000396000f3fe6080604052600436106100a75760003560e01c80638a23e047116100645780638a23e047146101cc5780638f74935f146101f5578063c1cbbca714610232578063c70a2d791461024e578063d13cb1fb14610279578063ee40f60d146102be576100a7565b806312065fe0146100ac578063164b2fb3146100d75780633785fc1a146101005780633c6983491461012957806357531ea214610166578063716f71471461018f575b600080fd5b3480156100b857600080fd5b506100c1610300565b6040516100ce9190611637565b60405180910390f35b3480156100e357600080fd5b506100fe60048036038101906100f991906117d8565b610308565b005b34801561010c57600080fd5b5061012760048036038101906101229190611847565b6104fb565b005b34801561013557600080fd5b50610150600480360381019061014b9190611847565b6106e0565b60405161015d9190611637565b60405180910390f35b34801561017257600080fd5b5061018d600480360381019061018891906118ac565b61071b565b005b34801561019b57600080fd5b506101b660048036038101906101b1919061195d565b610b39565b6040516101c39190611637565b60405180910390f35b3480156101d857600080fd5b506101f360048036038101906101ee919061199d565b610c38565b005b34801561020157600080fd5b5061021c60048036038101906102179190611a1b565b610eda565b6040516102299190611637565b60405180910390f35b61024c60048036038101906102479190611847565b61100e565b005b34801561025a57600080fd5b50610263611248565b6040516102709190611637565b60405180910390f35b34801561028557600080fd5b506102a0600480360381019061029b9190611847565b61124e565b6040516102b599989796959493929190611b6b565b60405180910390f35b3480156102ca57600080fd5b506102e560048036038101906102e09190611c06565b6113d9565b6040516102f796959493929190611c59565b60405180910390f35b600047905090565b600054831115801561031b575060018310155b61032457600080fd5b600115156001600085815260200190815260200160002060050160009054906101000a900460ff1615151461035857600080fd5b600160008481526020019081526020016000206006015482111561037b57600080fd5b6001600084815260200190815260200160002060000160009054906101000a900473ffffffffffffffffffffffffffffffffffffffff1673ffffffffffffffffffffffffffffffffffffffff163373ffffffffffffffffffffffffffffffffffffffff16146103e957600080fd5b6000600160008581526020019081526020016000209050600181600801546104119190611cf0565b81600801819055508181600a0160008360080154815260200190815260200160002060000190816104429190611f30565b508281600a0160008360080154815260200190815260200160002060010181905550600081600a0160008360080154815260200190815260200160002060020181905550600081600a0160008360080154815260200190815260200160002060030181905550600081600a0160008360080154815260200190815260200160002060040160006101000a81548160ff0219169083151502179055508281600601546104ed9190612002565b816006018190555050505050565b600054811115801561050e575060018110155b61051757600080fd5b600015156001600083815260200190815260200160002060050160009054906101000a900460ff1615151461054b57600080fd5b60006001600083815260200190815260200160002090506000600190505b816007015481116106db573373ffffffffffffffffffffffffffffffffffffffff1682600901600083815260200190815260200160002060000160009054906101000a900473ffffffffffffffffffffffffffffffffffffffff1673ffffffffffffffffffffffffffffffffffffffff16036106c85781600901600082815260200190815260200160002060000160009054906101000a900473ffffffffffffffffffffffffffffffffffffffff1673ffffffffffffffffffffffffffffffffffffffff166108fc836009016000848152602001908152602001600020600101549081150290604051600060405180830381858888f19350505050158015610675573d6000803e3d6000fd5b50600082600901600083815260200190815260200160002060010181905550816009016000828152602001908152602001600020600101548260060160008282546106c09190612002565b925050819055505b80806106d390612036565b915050610569565b505050565b6000805482111580156106f4575060018210155b6106fd57600080fd5b60016000838152602001908152602001600020600801549050919050565b600054831115801561072e575060018310155b61073757600080fd5b6001600084815260200190815260200160002060080154821115801561075e575060018210155b61076757600080fd5b6000151560016000858152602001908152602001600020600a01600084815260200190815260200160002060040160009054906101000a900460ff161515146107af57600080fd5b6000600190505b60016000858152602001908152602001600020600701548111610b29573373ffffffffffffffffffffffffffffffffffffffff1660016000868152602001908152602001600020600901600083815260200190815260200160002060000160009054906101000a900473ffffffffffffffffffffffffffffffffffffffff1673ffffffffffffffffffffffffffffffffffffffff1603610b16576001806000868152602001908152602001600020600a01600085815260200190815260200160002060050160008381526020019081526020016000205403610902576001600085815260200190815260200160002060090160008281526020019081526020016000206001015460016000868152602001908152602001600020600a01600085815260200190815260200160002060020160008282546108f69190612002565b925050819055506109b2565b600260016000868152602001908152602001600020600a016000858152602001908152602001600020600501600083815260200190815260200160002054036109b1576001600085815260200190815260200160002060090160008281526020019081526020016000206001015460016000868152602001908152602001600020600a01600085815260200190815260200160002060030160008282546109a99190612002565b925050819055505b5b8115610a68576001600085815260200190815260200160002060090160008281526020019081526020016000206001015460016000868152602001908152602001600020600a0160008581526020019081526020016000206002016000828254610a1c9190611cf0565b925050819055506001806000868152602001908152602001600020600a016000858152602001908152602001600020600501600083815260200190815260200160002081905550610b15565b6001600085815260200190815260200160002060090160008281526020019081526020016000206001015460016000868152602001908152602001600020600a0160008581526020019081526020016000206003016000828254610acc9190611cf0565b92505081905550600260016000868152602001908152602001600020600a0160008581526020019081526020016000206005016000838152602001908152602001600020819055505b5b8080610b2190612036565b9150506107b6565b50610b348383610c38565b505050565b600080600090506000600190505b60016000858152602001908152602001600020600701548111610c2d578473ffffffffffffffffffffffffffffffffffffffff1660016000868152602001908152602001600020600901600083815260200190815260200160002060000160009054906101000a900473ffffffffffffffffffffffffffffffffffffffff1673ffffffffffffffffffffffffffffffffffffffff1603610c1a576001600085815260200190815260200160002060090160008281526020019081526020016000206001015482610c179190611cf0565b91505b8080610c2590612036565b915050610b47565b508091505092915050565b6000548211158015610c4b575060018210155b610c5457600080fd5b6000151560016000848152602001908152602001600020600a01600083815260200190815260200160002060040160009054906101000a900460ff16151514610c9c57600080fd5b60026001600084815260200190815260200160002060030154610cbf91906120ad565b60016000848152602001908152602001600020600a0160008381526020019081526020016000206002015410610dd9576001806000848152602001908152602001600020600a01600083815260200190815260200160002060040160006101000a81548160ff0219169083151502179055506001600083815260200190815260200160002060000160009054906101000a900473ffffffffffffffffffffffffffffffffffffffff1673ffffffffffffffffffffffffffffffffffffffff166108fc60016000858152602001908152602001600020600a016000848152602001908152602001600020600101549081150290604051600060405180830381858888f19350505050158015610dd7573d6000803e3d6000fd5b505b60026001600084815260200190815260200160002060030154610dfc91906120ad565b60016000848152602001908152602001600020600a016000838152602001908152602001600020600301541115610ed65760016000838152602001908152602001600020600a016000828152602001908152602001600020600101546001600084815260200190815260200160002060060154610e799190611cf0565b60016000848152602001908152602001600020600601819055506001806000848152602001908152602001600020600a01600083815260200190815260200160002060040160006101000a81548160ff0219169083151502179055505b5050565b6000428211610f1e576040517f08c379a0000000000000000000000000000000000000000000000000000000008152600401610f1590612150565b60405180910390fd5b6001600054610f2d9190611cf0565b600081905550600060016000805481526020019081526020016000209050868160000160006101000a81548173ffffffffffffffffffffffffffffffffffffffff021916908373ffffffffffffffffffffffffffffffffffffffff16021790555085816001019081610f9f9190611f30565b5084816002019081610fb19190611f30565b5083816003018190555082816004018190555060008160050160006101000a81548160ff02191690831515021790555060008160060181905550600081600701819055506000816008018190555060005491505095945050505050565b6000341180156110555750600160008281526020019081526020016000206006015460016000838152602001908152602001600020600301546110519190612002565b3411155b611094576040517f08c379a000000000000000000000000000000000000000000000000000000000815260040161108b906121e2565b60405180910390fd5b426001600083815260200190815260200160002060040154116110ec576040517f08c379a00000000000000000000000000000000000000000000000000000000081526004016110e39061224e565b60405180910390fd5b600015156001600083815260200190815260200160002060050160009054906101000a900460ff16151514611156576040517f08c379a000000000000000000000000000000000000000000000000000000000815260040161114d906122ba565b60405180910390fd5b6000600160008381526020019081526020016000209050348160060160008282546111819190611cf0565b92505081905550600181600701546111999190611cf0565b8160070181905550338160090160008360070154815260200190815260200160002060000160006101000a81548173ffffffffffffffffffffffffffffffffffffffff021916908373ffffffffffffffffffffffffffffffffffffffff1602179055503481600901600083600701548152602001908152602001600020600101819055508060030154816006015410158160050160006101000a81548160ff0219169083151502179055505050565b60005481565b60016020528060005260406000206000915090508060000160009054906101000a900473ffffffffffffffffffffffffffffffffffffffff169080600101805461129790611d53565b80601f01602080910402602001604051908101604052809291908181526020018280546112c390611d53565b80156113105780601f106112e557610100808354040283529160200191611310565b820191906000526020600020905b8154815290600101906020018083116112f357829003601f168201915b50505050509080600201805461132590611d53565b80601f016020809104026020016040519081016040528092919081815260200182805461135190611d53565b801561139e5780601f106113735761010080835404028352916020019161139e565b820191906000526020600020905b81548152906001019060200180831161138157829003601f168201915b5050505050908060030154908060040154908060050160009054906101000a900460ff16908060060154908060070154908060080154905089565b60606000806000806000805489111580156113f5575060018910155b6113fe57600080fd5b600160008a8152602001908152602001600020600801548811158015611425575060018810155b61142e57600080fd5b6000600160008b8152602001908152602001600020600a0160008a81526020019081526020016000209050600080600190505b600160008d8152602001908152602001600020600701548111611551578973ffffffffffffffffffffffffffffffffffffffff16600160008e8152602001908152602001600020600901600083815260200190815260200160002060000160009054906101000a900473ffffffffffffffffffffffffffffffffffffffff1673ffffffffffffffffffffffffffffffffffffffff160361153e57600160008d8152602001908152602001600020600a0160008c81526020019081526020016000206005016000828152602001908152602001600020549150611551565b808061154990612036565b915050611461565b50816000018260010154836002015484600301548560040160009054906101000a900460ff168585805461158490611d53565b80601f01602080910402602001604051908101604052809291908181526020018280546115b090611d53565b80156115fd5780601f106115d2576101008083540402835291602001916115fd565b820191906000526020600020905b8154815290600101906020018083116115e057829003601f168201915b50505050509550975097509750975097509750505093975093979195509350565b6000819050919050565b6116318161161e565b82525050565b600060208201905061164c6000830184611628565b92915050565b6000604051905090565b600080fd5b600080fd5b61166f8161161e565b811461167a57600080fd5b50565b60008135905061168c81611666565b92915050565b600080fd5b600080fd5b6000601f19601f8301169050919050565b7f4e487b7100000000000000000000000000000000000000000000000000000000600052604160045260246000fd5b6116e58261169c565b810181811067ffffffffffffffff82111715611704576117036116ad565b5b80604052505050565b6000611717611652565b905061172382826116dc565b919050565b600067ffffffffffffffff821115611743576117426116ad565b5b61174c8261169c565b9050602081019050919050565b82818337600083830152505050565b600061177b61177684611728565b61170d565b90508281526020810184848401111561179757611796611697565b5b6117a2848285611759565b509392505050565b600082601f8301126117bf576117be611692565b5b81356117cf848260208601611768565b91505092915050565b6000806000606084860312156117f1576117f061165c565b5b60006117ff8682870161167d565b93505060206118108682870161167d565b925050604084013567ffffffffffffffff81111561183157611830611661565b5b61183d868287016117aa565b9150509250925092565b60006020828403121561185d5761185c61165c565b5b600061186b8482850161167d565b91505092915050565b60008115159050919050565b61188981611874565b811461189457600080fd5b50565b6000813590506118a681611880565b92915050565b6000806000606084860312156118c5576118c461165c565b5b60006118d38682870161167d565b93505060206118e48682870161167d565b92505060406118f586828701611897565b9150509250925092565b600073ffffffffffffffffffffffffffffffffffffffff82169050919050565b600061192a826118ff565b9050919050565b61193a8161191f565b811461194557600080fd5b50565b60008135905061195781611931565b92915050565b600080604083850312156119745761197361165c565b5b600061198285828601611948565b92505060206119938582860161167d565b9150509250929050565b600080604083850312156119b4576119b361165c565b5b60006119c28582860161167d565b92505060206119d38582860161167d565b9150509250929050565b60006119e8826118ff565b9050919050565b6119f8816119dd565b8114611a0357600080fd5b50565b600081359050611a15816119ef565b92915050565b600080600080600060a08688031215611a3757611a3661165c565b5b6000611a4588828901611a06565b955050602086013567ffffffffffffffff811115611a6657611a65611661565b5b611a72888289016117aa565b945050604086013567ffffffffffffffff811115611a9357611a92611661565b5b611a9f888289016117aa565b9350506060611ab08882890161167d565b9250506080611ac18882890161167d565b9150509295509295909350565b611ad7816119dd565b82525050565b600081519050919050565b600082825260208201905092915050565b60005b83811015611b17578082015181840152602081019050611afc565b60008484015250505050565b6000611b2e82611add565b611b388185611ae8565b9350611b48818560208601611af9565b611b518161169c565b840191505092915050565b611b6581611874565b82525050565b600061012082019050611b81600083018c611ace565b8181036020830152611b93818b611b23565b90508181036040830152611ba7818a611b23565b9050611bb66060830189611628565b611bc36080830188611628565b611bd060a0830187611b5c565b611bdd60c0830186611628565b611bea60e0830185611628565b611bf8610100830184611628565b9a9950505050505050505050565b600080600060608486031215611c1f57611c1e61165c565b5b6000611c2d8682870161167d565b9350506020611c3e8682870161167d565b9250506040611c4f86828701611948565b9150509250925092565b600060c0820190508181036000830152611c738189611b23565b9050611c826020830188611628565b611c8f6040830187611628565b611c9c6060830186611628565b611ca96080830185611b5c565b611cb660a0830184611628565b979650505050505050565b7f4e487b7100000000000000000000000000000000000000000000000000000000600052601160045260246000fd5b6000611cfb8261161e565b9150611d068361161e565b9250828201905080821115611d1e57611d1d611cc1565b5b92915050565b7f4e487b7100000000000000000000000000000000000000000000000000000000600052602260045260246000fd5b60006002820490506001821680611d6b57607f821691505b602082108103611d7e57611d7d611d24565b5b50919050565b60008190508160005260206000209050919050565b60006020601f8301049050919050565b600082821b905092915050565b600060088302611de67fffffffffffffffffffffffffffffffffffffffffffffffffffffffffffffffff82611da9565b611df08683611da9565b95508019841693508086168417925050509392505050565b6000819050919050565b6000611e2d611e28611e238461161e565b611e08565b61161e565b9050919050565b6000819050919050565b611e4783611e12565b611e5b611e5382611e34565b848454611db6565b825550505050565b600090565b611e70611e63565b611e7b818484611e3e565b505050565b5b81811015611e9f57611e94600082611e68565b600181019050611e81565b5050565b601f821115611ee457611eb581611d84565b611ebe84611d99565b81016020851015611ecd578190505b611ee1611ed985611d99565b830182611e80565b50505b505050565b600082821c905092915050565b6000611f0760001984600802611ee9565b1980831691505092915050565b6000611f208383611ef6565b9150826002028217905092915050565b611f3982611add565b67ffffffffffffffff811115611f5257611f516116ad565b5b611f5c8254611d53565b611f67828285611ea3565b600060209050601f831160018114611f9a5760008415611f88578287015190505b611f928582611f14565b865550611ffa565b601f198416611fa886611d84565b60005b82811015611fd057848901518255600182019150602085019450602081019050611fab565b86831015611fed5784890151611fe9601f891682611ef6565b8355505b6001600288020188555050505b505050505050565b600061200d8261161e565b91506120188361161e565b92508282039050818111156120305761202f611cc1565b5b92915050565b60006120418261161e565b91507fffffffffffffffffffffffffffffffffffffffffffffffffffffffffffffffff820361207357612072611cc1565b5b600182019050919050565b7f4e487b7100000000000000000000000000000000000000000000000000000000600052601260045260246000fd5b60006120b88261161e565b91506120c38361161e565b9250826120d3576120d261207e565b5b828204905092915050565b7fe4bc97e7adb9e7bb93e69d9fe697b6e997b4e4b88de883bde5b08fe4ba8ee5bd60008201527f93e5898de697b6e997b400000000000000000000000000000000000000000000602082015250565b600061213a602a83611ae8565b9150612145826120de565b604082019050919050565b600060208201905081810360008301526121698161212d565b9050919050565b7fe4bc97e7adb9e79a84e5bf85e9a1bbe5a4a7e4ba8e30efbc8ce4b88de883bde860008201527fb685e8bf87e5b7aee9a29d000000000000000000000000000000000000000000602082015250565b60006121cc602b83611ae8565b91506121d782612170565b604082019050919050565b600060208201905081810360008301526121fb816121bf565b9050919050565b7fe5b7b2e8b685e8bf87e4bc97e7adb9e697b6e997b40000000000000000000000600082015250565b6000612238601583611ae8565b915061224382612202565b602082019050919050565b600060208201905081810360008301526122678161222b565b9050919050565b7fe4bc97e7adb9e5b7b2e7bb93e69d9f0000000000000000000000000000000000600082015250565b60006122a4600f83611ae8565b91506122af8261226e565b602082019050919050565b600060208201905081810360008301526122d381612297565b905091905056fea26469706673582212209998e03d18963c21b7d9d1c8e32dc88f39841a2263a0db7b3e34039725b3d3e764736f6c63430008180033",
  "linkReferences": {},
  "deployedLinkReferences": {}
}